:100000000C942A000C9447000C9447000C94470071
:100010000C9447000C9447000C9447000C94470044
:100020000C9447000C9447000C9407060C943A0675
:100030000C9447000C9447000C9447000C94470024
:100040000C94190B0C9447000C9447000C94470037
:100050000C94470011241FBECFE5D8E0DEBFCDBF12
:1000600010E0A0E6B0E0E6ECF7E102C005900D92EA
:10007000A439B107D9F711E0A4E9B0E001C01D929D
:10008000A530B107E1F70E947F0B0C94E10B0C94B3
:100090000000DF93CF93CDB7DEB70E94C6060E9463
:1000A000C0040E94FE0180E00E94260181E00E94BF
:1000B0002601CF91DF910895DF93CF9300D000D038
:1000C0000F92CDB7DEB71A828FEF8B8319828A81A8
:1000D000282F30E03D832C838C819D8181309105D8
:1000E000A9F12C813D812230310509F4A5C08C8114
:1000F0009D81009761F70E948B0480E060E00E9480
:10010000530480E690E00E94710381E060E00E9469
:1001100053048BE690E00E9471030E9403058B83D9
:1001200003C00E9403058B838B81813019F08B8182
:100130008230B9F78B81813019F481E08A83C7CF8F
:100140008B81823021F682E08A83C1CF80E061E03A
:100150000E945A018CE30E944D0119828FEF8B831C
:100160000E948B0480E060E00E94530486E790E0E8
:100170000E9471030E9403058B8303C00E94030544
:100180008B838B818F3FD1F381E065E00E94530424
:1001900017C00E9403058B838B818F3F89F0898173
:1001A000882F90E09C01220F331FC901880F991FEF
:1001B000880F991F820F931F982F8B81890F898336
:1001C0008B81883031F78981882F90E0A0E0B0E002
:1001D000BC01CD010E94AC038981813120F480E013
:1001E0000E94A30126C08981823158F0898185311E
:1001F00040F48EE10E944D0180E061E00E945A01CE
:1002000018C08981863158F08981873140F480E0B7
:1002100061E00E945A018CE30E944D010AC089816D
:100220008A3138F08AE50E944D0180E061E00E9449
:100230005A0182E08A834BCF8981882F90E0A0E029
:10024000B0E0BC01CD010E94AC0341CFDF93CF935E
:100250000F92CDB7DEB789830E9472068981882309
:1002600059F483E062E041E00E94D40683E063E059
:1002700041E00E94D4060DC08981813051F483E0B1
:1002800066E041E00E94D40683E067E041E00E941E
:10029000D4060F90CF91DF910895DF93CF930F9203
:1002A000CDB7DEB7898389810E94B9060F90CF91BF
:1002B000DF910895DF93CF9300D0CDB7DEB7898368
:1002C0006A8389818823E1F48A81813059F483E04B
:1002D00062E041E00E942B0883E063E040E00E947E
:1002E0002B082CC08A81882349F583E062E040E036
:1002F0000E942B0883E063E041E00E942B081EC0AF
:1003000089818130D9F48A81813059F483E066E0B3
:1003100041E00E942B0883E067E040E00E942B0848
:100320000DC08A81882351F483E066E040E00E949A
:100330002B0883E067E041E00E942B080F900F90AC
:10034000CF91DF910895DF93CF930F92CDB7DEB7B2
:1003500089838981882359F483E062E040E00E9428
:100360002B0883E063E040E00E942B080DC08981E8
:10037000813051F483E066E040E00E942B0883E086
:1003800067E040E00E942B080F90CF91DF91089525
:10039000DF93CF9300D000D00F92CDB7DEB78D831F
:1003A0009E012C5F3F4F8D81B9010E94450A8C81CF
:1003B000882F90E0A0E0B0E028E833E140E050E092
:1003C000BC01CD010E948C0BDC01CB01892F9A2F3F
:1003D000AB2FBB279A83898389819A812AE030E0F9
:1003E000B9010E94AB0BCB018B838B810F900F90D7
:1003F0000F900F900F90CF91DF910895DF93CF93DF
:10040000CDB7DEB780919400882309F03FC080E02B
:1004100061E041E00E94D40680E062E041E00E9499
:10042000D40680E063E041E00E94D40680E064E00E
:1004300041E00E94D40680E065E041E00E94D406DD
:1004400080E066E041E00E94D40680E067E041E0A1
:100450000E94D40688EE9DEF0E94A20481E0809362
:10046000940088E20E94490288E893E10E94A20475
:100470008CE00E94490288E893E10E94A20481E096
:100480000E94490288E893E10E94A204CF91DF9183
:100490000895DF93CF930F92CDB7DEB78983809114
:1004A0009400882329F488E761E00E94580B81C0FA
:1004B00080E061E040E00E942B0880E062E040E0E4
:1004C0000E942B08898182958F70982F917080E00F
:1004D00064E0492F0E942B08898182958695877058
:1004E000982F917080E065E0492F0E942B08898148
:1004F0008295869586958370982F917080E066E04E
:10050000492F0E942B088981982F991F9927991F9D
:1005100080E067E0492F0E942B0880E063E041E023
:100520000E942B0888E893E10E94A20480E063E027
:1005300040E00E942B0880E061E040E00E942B0830
:1005400080E062E040E00E942B088981982F917042
:1005500080E064E0492F0E942B0889818695982FBE
:10056000917080E065E0492F0E942B088981869573
:100570008695982F917080E066E0492F0E942B08A5
:100580008981869586958695982F917080E067E0A1
:10059000492F0E942B0880E063E041E00E942B0875
:1005A00088E893E10E94A20480E063E040E00E94BA
:1005B0002B080F90CF91DF910895DF93CF930F9287
:1005C000CDB7DEB7898380919400882329F488E72A
:1005D00062E00E94580B81C080E061E041E00E942F
:1005E0002B0880E062E040E00E942B088981829520
:1005F0008F70982F917080E064E0492F0E942B0843
:100600008981829586958770982F917080E065E04A
:10061000492F0E942B088981829586958695837043
:10062000982F917080E066E0492F0E942B08898105
:10063000982F991F9927991F80E067E0492F0E9402
:100640002B0880E063E041E00E942B0888E893E1FA
:100650000E94A20480E063E040E00E942B0880E05A
:1006600061E041E00E942B0880E062E040E00E94EF
:100670002B088981982F917080E064E0492F0E94B7
:100680002B0889818695982F917080E065E0492F2D
:100690000E942B08898186958695982F917080E01D
:1006A00066E0492F0E942B0889818695869586955C
:1006B000982F917080E067E0492F0E942B0880E01E
:1006C00063E041E00E942B0888E893E10E94A204C5
:1006D00080E063E040E00E942B080F90CF91DF9113
:1006E0000895DF93CF9300D00F92CDB7DEB79B83F1
:1006F0008A838A819B81009729F488E763E00E94BE
:10070000580B24C080919400882329F488E763E083
:100710000E94580B1BC019820EC08981282F30E01F
:100720008A819B81FC01E20FF31F80810E94DD0220
:1007300089818F5F89838981282F30E08A819B811D
:10074000FC01E20FF31F8081882339F70F900F908F
:100750000F90CF91DF910895EF92FF920F931F9327
:10076000DF93CF93CDB7DEB728970FB6F894DEBFEF
:100770000FBECDBF6D837E838F8398878091940059
:10078000882329F488E764E00E94580B7FC081E049
:1007900090E0A0E0B0E089839A83AB83BC838D8135
:1007A0009E81AF81B8850097A105B105D1F580E3A1
:1007B0000E94DD026BC089819A81AB81BC812AE0F5
:1007C00030E040E050E0BC01CD010E948C0B7B0189
:1007D0008C018D819E81AF81B8852AE030E040E0B8
:1007E00050E0BC01CD010E94BF0BDC01CB018E0D9E
:1007F0009F1DA01FB11F89839A83AB83BC838D810A
:100800009E81AF81B8852AE030E040E050E0BC0135
:10081000CD010E94BF0BDA01C9018D839E83AF8396
:10082000B8878D819E81AF81B8850097A105B105FC
:1008300011F623C089819A81AB81BC812AE030E026
:1008400040E050E0BC01CD010E94BF0BDC01CB01B8
:10085000805D0E94DD0289819A81AB81BC812AE0A2
:1008600030E040E050E0BC01CD010E94BF0BDA0156
:10087000C90189839A83AB83BC8389819A81AB81C7
:10088000BC8181309105A105B105A1F628960FB66E
:10089000F894DEBF0FBECDBFCF91DF911F910F91B6
:1008A000FF90EF900895DF93CF9300D000D00F9288
:1008B000CDB7DEB78A836B8380919400882329F4B7
:1008C00088E765E00E94580B1EC080E889838A8112
:1008D000282F30E03D832C838C819D81009731F05F
:1008E0002C813D812130310531F00AC089819B8105
:1008F000890F898305C09B818981890F805C8983E9
:1009000089810E9449020F900F900F900F900F90D5
:10091000CF91DF910895DF93CF93CDB7DEB780916C
:100920009400882329F488E766E00E94580B07C0EA
:1009300081E00E94490280E49FE10E94A204CF91DD
:10094000DF910895DF93CF9300D000D0CDB7DEB70D
:100950009C838B831A82198205C089819A810196B2
:100960009A83898329813A818B819C812817390751
:10097000A0F30F900F900F900F90CF91DF910895FB
:10098000DF93CF93CDB7DEB782E065E041E00E9410
:10099000D40682E066E041E00E94D40682E067E08F
:1009A00041E00E94D40682E062E040E00E94D4066A
:1009B00082E063E040E00E94D40682E064E040E030
:1009C0000E94D40682E062E041E00E942B0882E0AF
:1009D00063E041E00E942B0882E064E041E00E9475
:1009E0002B0882E065E041E00E942B0882E066E08F
:1009F00041E00E942B0882E067E041E00E942B0862
:100A0000CF91DF910895DF93CF9300D000D00F9264
:100A1000CDB7DEB78FEF8B8319826AC08981882FAB
:100A200090E0FC01EC57FF4F908182E0692F40E09D
:100A30000E942B081A8249C08A81882F90E0FC010D
:100A4000E957FF4F90819E012C5F3F4F82E0692F55
:100A5000A9010E9482098C818823A1F58A81282F0F
:100A600030E08981482F50E0C901880F991F820F1B
:100A7000931F840F951FFC01E657FF4F80818B83E6
:100A80000FC08A81882F90E0FC01E957FF4F9081C9
:100A90009E012C5F3F4F82E0692FA9010E948209CD
:100AA0008C81882371F38981882F90E0FC01EC57B9
:100AB000FF4F908182E0692F41E00E942B088B81DB
:100AC0008D831CC08A818F5F8A838A81833008F47A
:100AD000B3CF8981882F90E0FC01EC57FF4F9081C4
:100AE00082E0692F41E00E942B0889818F5F898312
:100AF0008981833008F492CF8B818D838D810F9013
:100B00000F900F900F900F90CF91DF910895DF938A
:100B1000CF93CDB7DEB7E3E5F0E01082A9E5B0E012
:100B2000E9E5F0E0808181608C93CF91DF910895B9
:100B3000DF93CF930F92CDB7DEB7898389810E946F
:100B4000D105A3E5B0E0E3E5F0E0808183608C931C
:100B50000F90CF91DF910895DF93CF93CDB7DEB79C
:100B6000A3E5B0E0E3E5F0E08081887F8C93CF914E
:100B7000DF910895DF93CF93CDB7DEB7E8E5F0E0DE
:100B800080818170CF91DF910895DF93CF93CDB7AE
:100B9000DEB7E8E5F0E0808186958170CF91DF9146
:100BA0000895DF93CF930F92CDB7DEB78983898104
:100BB00080939900E2E5F0E08091990080830F90A6
:100BC000CF91DF910895DF93CF9300D0CDB7DEB7FB
:100BD0009A83898389819A81909396008093950066
:100BE0000F900F90CF91DF910895DF93CF9300D0B6
:100BF000CDB7DEB79A83898389819A8190939800D3
:100C0000809397000F900F90CF91DF9108951F92DE
:100C10000F920FB60F9211242F933F934F935F9330
:100C20006F937F938F939F93AF93BF93EF93FF93B4
:100C3000DF93CF93CDB7DEB780919500909196006A
:100C4000009729F0E0919500F09196000995CF91D9
:100C5000DF91FF91EF91BF91AF919F918F917F9124
:100C60006F915F914F913F912F910F900FBE0F9019
:100C70001F9018951F920F920FB60F9211242F9369
:100C80003F934F935F936F937F938F939F93AF9314
:100C9000BF93EF93FF93DF93CF93CDB7DEB7E2E53A
:100CA000F0E0809199008083809197009091980066
:100CB000009729F0E0919700F09198000995CF9165
:100CC000DF91FF91EF91BF91AF919F918F917F91B4
:100CD0006F915F914F913F912F910F900FBE0F90A9
:100CE0001F901895DF93CF93CDB7DEB78CE896E0D1
:100CF0000E94F5050E94870583E064E041E00E94C0
:100D0000D40683E065E041E00E94D40687EE0E94AD
:100D10009805CF91DF910895DF93CF93CDB7DEB7DC
:100D200080919A008F5F80939A0090919A008091B1
:100D30009B00981759F483E064E040E00E942B0880
:100D400083E065E040E00E942B0810C080919A008B
:100D5000843660F010929A0083E064E041E00E94E3
:100D60002B0883E065E041E00E942B08CF91DF91E2
:100D70000895DF93CF930F92CDB7DEB78983898132
:100D800080939B000F90CF91DF910895DF93CF93D5
:100D9000CDB7DEB7AFE5B0E0EFE5F0E08081806889
:100DA0008C93CF91DF910895DF93CF93CDB7DEB7CA
:100DB00028970FB6F894DEBF0FBECDBF8A836B8332
:100DC0004C8381E089838B81883008F0F1C08C816D
:100DD000813009F071C08A81282F30E038872F8355
:100DE0008F8198858130910549F12F813885223096
:100DF00031052CF48F819885009761F05BC02F81BD
:100E000038852230310571F18F81988583309105C5
:100E1000E9F150C0AAE3B0E0EAE3F0E08081482FB6
:100E20008B81282F30E081E090E0022E02C0880FF5
:100E3000991F0A94E2F7842B8C93BBC0A7E3B0E020
:100E4000E7E3F0E08081482F8B81282F30E081E0BC
:100E500090E0022E02C0880F991F0A94E2F7842BBB
:100E60008C93A7C0A4E3B0E0E4E3F0E08081482FD6
:100E70008B81282F30E081E090E0022E02C0880FA5
:100E8000991F0A94E2F7842B8C9393C0A1E3B0E0FE
:100E9000E1E3F0E08081482F8B81282F30E081E072
:100EA00090E0022E02C0880F991F0A94E2F7842B6B
:100EB0008C937FC019827DC08C81882309F076C015
:100EC0008A81282F30E03E832D838D819E81813061
:100ED000910559F12D813E81223031052CF48D810F
:100EE0009E81009769F060C02D813E8122303105DE
:100EF00089F18D819E818330910509F440C054C0F1
:100F0000AAE3B0E0EAE3F0E08081482F8B81282F4C
:100F100030E081E090E0022E02C0880F991F0A9411
:100F2000E2F7809584238C9344C0A7E3B0E0E7E325
:100F3000F0E08081482F8B81282F30E081E090E025
:100F4000022E02C0880F991F0A94E2F7809584232D
:100F50008C932FC0A4E3B0E0E4E3F0E08081482F5D
:100F60008B81282F30E081E090E0022E02C0880FB4
:100F7000991F0A94E2F7809584238C931AC0A1E309
:100F8000B0E0E1E3F0E08081482F8B81282F30E052
:100F900081E090E0022E02C0880F991F0A94E2F7C8
:100FA000809584238C9305C0198203C0198201C0E7
:100FB0001982898128960FB6F894DEBF0FBECDBF87
:100FC000CF91DF910895DF93CF9300D000D00F929F
:100FD000CDB7DEB78A836B8381E089838A81282F2E
:100FE00030E03D832C838C819D8181309105D1F04F
:100FF0002C813D81223031052CF48C819D8100971C
:1010000061F01FC02C813D812230310581F08C813F
:101010009D818330910581F014C0EAE3F0E08B817B
:10102000808310C0E7E3F0E08B8180830BC0E4E3B2
:10103000F0E08B81808306C0E1E3F0E08B81808368
:1010400001C0198289810F900F900F900F900F901F
:10105000CF91DF910895DF93CF93CDB7DEB7289777
:101060000FB6F894DEBF0FBECDBF8A836B834C836F
:1010700081E089838B81883008F0F1C08C818130D8
:1010800009F071C08A81282F30E038872F838F8143
:1010900098858130910549F12F81388522303105BD
:1010A0002CF48F819885009761F05BC02F81388583
:1010B0002230310571F18F81988583309105E9F1F6
:1010C00050C0ABE3B0E0EBE3F0E08081482F8B81D0
:1010D000282F30E081E090E0022E02C0880F991F97
:1010E0000A94E2F7842B8C93BBC0A8E3B0E0E8E35A
:1010F000F0E08081482F8B81282F30E081E090E064
:10110000022E02C0880F991F0A94E2F7842B8C9359
:10111000A7C0A5E3B0E0E5E3F0E08081482F8B8134
:10112000282F30E081E090E0022E02C0880F991F46
:101130000A94E2F7842B8C9393C0A2E3B0E0E2E33D
:10114000F0E08081482F8B81282F30E081E090E013
:10115000022E02C0880F991F0A94E2F7842B8C9309
:101160007FC019827DC08C81882309F076C08A8176
:10117000282F30E03E832D838D819E818130910523
:1011800059F12D813E81223031052CF48D819E81D3
:10119000009769F060C02D813E812230310589F1D0
:1011A0008D819E818330910509F440C054C0ABE32A
:1011B000B0E0EBE3F0E08081482F8B81282F30E016
:1011C00081E090E0022E02C0880F991F0A94E2F796
:1011D000809584238C9344C0A8E3B0E0E8E3F0E07A
:1011E0008081482F8B81282F30E081E090E0022E13
:1011F00002C0880F991F0A94E2F7809584238C938C
:101200002FC0A5E3B0E0E5E3F0E08081482F8B81BB
:10121000282F30E081E090E0022E02C0880F991F55
:101220000A94E2F7809584238C931AC0A2E3B0E07D
:10123000E2E3F0E08081482F8B81282F30E081E0CD
:1012400090E0022E02C0880F991F0A94E2F7809561
:1012500084238C9305C0198203C0198201C01982AE
:10126000898128960FB6F894DEBF0FBECDBFCF910F
:10127000DF910895DF93CF9300D000D00F92CDB7C8
:10128000DEB78A836B8381E089838A81282F30E0EF
:101290003D832C838C819D8181309105D1F02C81FF
:1012A0003D81223031052CF48C819D81009761F0C5
:1012B0001FC02C813D812230310581F08C819D81C0
:1012C0008330910581F014C0EBE3F0E08B818083E3
:1012D00010C0E8E3F0E08B8180830BC0E5E3F0E031
:1012E0008B81808306C0E2E3F0E08B81808301C0C4
:1012F000198289810F900F900F900F900F90CF91CE
:10130000DF910895DF93CF93CDB7DEB727970FB660
:10131000F894DEBF0FBECDBF8A836B835D834C83A1
:1013200081E089838B81883008F073C08A81282FFF
:1013300030E03F832E834E815F814130510559F16A
:101340008E819F818230910534F42E813F81211559
:10135000310569F05CC04E815F814230510579F101
:101360008E819F818330910509F43DC050C0E9E32F
:10137000F0E08081282F30E08B81882F90E0A90158
:1013800002C0559547958A95E2F7CA018170EC81B4
:10139000FD8180833FC0E6E3F0E08081282F30E0CC
:1013A0008B81882F90E0A90102C0559547958A95B9
:1013B000E2F7CA018170EC81FD8180832BC0E3E3F9
:1013C000F0E08081282F30E08B81882F90E0A90108
:1013D00002C0559547958A95E2F7CA018170EC8164
:1013E000FD81808317C0E0E3F0E08081282F30E0AA
:1013F0008B81882F90E0A90102C0559547958A9569
:10140000E2F7CA018170EC81FD81808303C01982FB
:1014100001C01982898127960FB6F894DEBF0FBEEE
:10142000CDBFCF91DF910895DF93CF93CDB7DEB7D6
:10143000A7E2B0E0E7E2F0E0808180648C93A7E26D
:10144000B0E0E7E2F0E080818F778C93A7E2B0E034
:10145000E7E2F0E0808180628C93A6E2B0E0E6E211
:10146000F0E08081887F8C93A6E2B0E0E6E2F0E0D5
:10147000808187608C93A6E2B0E0E6E2F0E08081B4
:1014800080688C93CF91DF910895DF93CF93CDB790
:10149000DEB728970FB6F894DEBF0FBECDBF8E83A0
:1014A00078876F8381E08D8319821A821B821C8268
:1014B00080919300813009F05BC083E080939300BA
:1014C000A7E2B0E0E7E2F0E08081807E8C93A7E2C3
:1014D000B0E0E7E2F0E090818E81892B8C93A6E268
:1014E000B0E0E6E2F0E0808180648C930BC08981FB
:1014F0009A81AB81BC810196A11DB11D89839A831C
:10150000AB83BC83E6E2F0E0808182958F70882F08
:1015100090E081709070009761F489819A81AB812D
:10152000BC81803523EC920720E0A20720E0B207BF
:10153000F1F689819A81AB81BC81803523EC9207D9
:1015400020E0A20720E0B20711F41D8213C0A6E23A
:10155000B0E0E6E2F0E0808180618C93E5E2F0E0CB
:101560008081EF81F885808381E08093930002C0C1
:1015700083E08D838D8128960FB6F894DEBF0FBE71
:10158000CDBFCF91DF910895DF93CF9300D000D0EE
:1015900000D0CDB7DEB78A837C836B835E834D83B7
:1015A00081E08983809193008130B9F58B819C81A2
:1015B000009721F08D819E81009711F419822FC030
:1015C00083E080939300A7E2B0E0E7E2F0E080815F
:1015D000807E8C93A7E2B0E0E7E2F0E090818A8120
:1015E000892B8C93A6E2B0E0E6E2F0E08081806493
:1015F0008C93A6E2B0E0E6E2F0E0808188608C9314
:101600008B819C8190930201809301018D819E8149
:10161000909304018093030102C083E08983898150
:1016200026960FB6F894DEBF0FBECDBFCF91DF91E7
:1016300008951F920F920FB60F9211242F933F938C
:101640004F935F936F937F938F939F93AF93BF93CA
:10165000EF93FF93DF93CF93CDB7DEB7A091010156
:10166000B0910201E5E2F0E080818C9381E080930B
:101670009300E0910301F09104010995A6E2B0E026
:10168000E6E2F0E08081877F8C93CF91DF91FF913C
:10169000EF91BF91AF919F918F917F916F915F91EA
:1016A0004F913F912F910F900FBE0F901F90189563
:1016B000DF93CF9300D0CDB7DEB789836A83809163
:1016C0009C00882F90E0880F991FFC01E356FF4F84
:1016D0008981808380919C00882F90E0880F991FDA
:1016E000FC01E256FF4F8A81808380919C008F5FCE
:1016F00080939C000F900F90CF91DF910895DF931E
:10170000CF93CDB7DEB70E9449000E945C0080E015
:1017100090E0CF91DF910895629FD001739FF00117
:10172000829FE00DF11D649FE00DF11D929FF00D71
:10173000839FF00D749FF00D659FF00D9927729FA8
:10174000B00DE11DF91F639FB00DE11DF91FBD0133
:10175000CF0111240895AA1BBB1B51E107C0AA1F8A
:10176000BB1FA617B70710F0A61BB70B881F991F42
:101770005A95A9F780959095BC01CD010895A1E2F5
:101780001A2EAA1BBB1BFD010DC0AA1FBB1FEE1FFB
:10179000FF1FA217B307E407F50720F0A21BB30B46
:1017A000E40BF50B661F771F881F991F1A9469F7C2
:1017B00060957095809590959B01AC01BD01CF011E
:0617C0000895F894FFCF2C
:1017C600312D5345542054656D7000322D474554D4
:1017D6002054656D700044657369726564205465B4
:1017E6006D703A00050607020304010203040506AC
:0417F60007080901D6
:00000001FF
